:0300000002076E86
:0C076E00787FE4F6D8FD7581420207B5E3
:100A89007F64120A9A7590FF7F64120A9AE4F590BE
:010A9900223A
:0207FA008F3F2F
:1007FC00E4F540E540C3953F504F7590FE7F641281
:10080C000A9A7590FD7F64120A9A7590FB7F6412A8
:10081C000A9A7590F77F64120A9A7590EF7F6412AA
:10082C000A9A7590DF7F64120A9A7590BF7F6412E2
:10083C000A9A75907F7F64120A9A7590FF7590FEE4
:09084C007F64120A9A054080AA9B
:010855002280
:020856008F41D0
:10085800E4F542E542C39541504475907F7F6412A8
:100868000A9A7590BF7F64120A9A7590DF7F6412A6
:100878000A9A7590EF7F64120A9A7590F77F64124E
:100888000A9A7590FB7F64120A9A7590FD7F64122C
:0E0898000A9A7590FE7F64120A9A054280B596
:0108A600222F
:080AB3007590FF7F64020A9AAE
:10093500751F01E4F51DF51EE51FF4F5907F6412A2
:100945000A9AE51F25E0F51F051EE51E7002051D27
:10095500C39408E51D940040DFE59070037590FE93
:01096500226F
:10096600753880E4F536F537E538F4F5907F64128E
:100976000A9AE538C313F5380537E53770020536A8
:10098600C39408E536940040DFE590700375907FC8
:01099600223E
:10099700753BFEE4F539F53A853B907F64120A9A78
:1009A700E53B440125E0F53B053AE53A7002053998
:1009B700C39408E539940040DFE59070037590FE15
:0109C700220D
:1009C800753E7FE4F53CF53D853E907F64120A9ABA
:1009D800E53E4401C313F53E053DE53D7002053C87
:1009E800C39408E53C940040DFE590700375907F60
:0109F80022DC
:100A20003F065B4F666D7D077F6F777C395E79711E
:100A3000C0F9A4B0999282F880904E83C6A1868EA8
:100A740008107FBFDFEFF7FBFDFE08080102040842
:040A8400102040807E
:1008A700E4F522E522900A3093F59074082522F8A2
:1008B700E6F5807F32120A9A7590FF0522E522C37A
:1008C700940840DFE4F522E522900A2093F590741E
:1008D700102522F8E6F5807F32120A9AE4F5900592
:0808E70022E522C3940840DF62
:0108EF0022E6
:100A5E00C2B4C2B5C2B6C2B77F64120A9AD2B4D2B9
:060A6E00B5D2B6D2B7229A
:1008F00020B70E7F0A120A9A20B70612000030B7FE
:10090000FD20B60E7F0A120A9A20B60612000030A9
:10091000B6FD20B50E7F0A120A9A20B50612000015
:1009200030B5FD20B40E7F0A120A9A20B4061200D8
:050930000030B4FD22BF
:0D0A9A00EFD3940040077E6EDEFE1F80F358
:010AA700222C
:100A4000D3EF9400EE940040147DFF7C00ED1D7008
:0D0A5000011CED4C70F7EF1F70E61E80E3F7
:010A5D002276
:10035F000D0A5B2D2D2D2D2D4D43552D3531D5FBF3
:10036F00B0E5B2E2CAD4D4B4B3CCD0F22D2D2D2D3A
:10037F002D2D5D0D0A000D0A5B2D2D2D2D2DC7EB9B
:10038F00CAE4C8EBB2D9D7F7C3FCC1EEA3ACBCC764
:10039F00D7A1D0E8C7F8B7D6B4F3D0A1D0B4D7D689
:1003AF00C4B82D2D2D2D2D5D0D0A00312D2D2DA114
:1003BF00BE4C4544A1BF2D2D2D54657374696E67D6
:1003CF002E2E2E0D0A00322D2D2DA1BE4B4559A1DB
:1003DF00BF2D2D2D54657374696E672E2E2E0D0A49
:1003EF0000332D2D2DA1BE534D47A1BF2D2D2D54C3
:1003FF00657374696E672E2E2E0D0A0034202D2022
:10040F00A1BE52544328CDF2C4EAC0FA29A1BF2D90
:10041F002D2D54657374696E672E2E2E0D0A0035BF
:10042F00202D20A1BE414443A1BF2D2D2D54657316
:10043F0074696E672E2E2E0D0A0036202D20A1BE58
:10044F00464DCAD5D2F4BBFAA1BF2D2D2D546573DD
:10045F0074696E672E2E2E0D0A0037202D20A1BE37
:10046F004D50332D68656C6978BDE2C2EBA1BF2D8D
:10047F002D2D54657374696E672E2E2E0D0A00385C
:10048F00202D20A1BE43414E284C6F6F70626163D7
:10049F006B29A1BF2D2D2D54657374696E672E2E98
:1004AF002E0D0A0039202D20A1BE4448543131CEE3
:1004BF00C2CAAAB6C8A1BF2D2D2D54657374696E1B
:1004CF00672E2E2E0D0A0061202D20A1BE44533120
:1004DF0038423230CEC2B6C8B4ABB8D0C6F7A1BF1F
:1004EF002D2D2D54657374696E672E2E2E0D0A00F7
:1004FF0062202D20A1BE555342B2E2CAD4A1BF2D16
:10050F002D2D54657374696E672E2E2E0D0A0063A0
:10051F00202D20A1BEC9E3CFF1CDB728BBF0D1DB91
:10052F006F763737323529A1BF2D2D2D5465737452
:10053F00696E672E2E2E0D0A0064202D20A1BED2CB
:10054F00D4CCABCDF8454E4332384A3630A1BF2D0F
:10055F002D2D54657374696E672E2E2E0D0A00654E
:10056F00202D20A1BEBAF4CEFCB5C6A1BF2D2D2DD6
:10057F0054657374696E672E2E2E0D0A0066202D3A
:10058F0020A1BE5352414D2849533632575635316B
:10059F00323136424C4C2D3535544C4929A1BF2DA3
:1005AF002D2D54657374696E672E2E2E0D0A0067FC
:1005BF00202D20A1BE4E4F52464C41534828533256
:1005CF0039474C3132385031305446493031302967
:1005DF00A1BF2D2D2D54657374696E672E2E2E0DB0
:1005EF000A0068202D20A1BE4E414E44464C415377
:1005FF00482848593237554630383147324129A1BA
:10060F00BF2D2D2D54657374696E672E2E2E0D0A16
:04061F00000D0A00C0
:100623007BFF7A03795F1200657BFF7A037985127A
:1006330000657BFF7A0379BA1200657BFF7A037941
:10064300D51200657BFF7A0379F01200657BFF7A90
:1006530004790B1200657BFF7A04792E1200657B07
:10066300FF7A0479491200657BFF7A0479691200E5
:10067300657BFF7A04798E1200657BFF7A0479B378
:100683001200657BFF7A0479D61200657BFF7A043A
:1006930079FF1200657BFF7A05791E1200657BFFE7
:1006A3007A0579481200657BFF7A05796E12006539
:1006B3007BFF7A05798C1200657BFF7A0579BE1280
:1006C30000657BFF7A0579F11200657BFF7A037978
:0D06D300851200657BFF7A06792002006524
:0B0AA800120A891208A712062380FE24
:10077A00020AA8E493A3F8E493A34003F68001F2E3
:10078A0008DFF48029E493A3F85407240CC8C33380
:10079A00C4540F4420C8834004F456800146F6DF4F
:1007AA00E4800B0102040810204080900A74E47E61
:1007BA00019360BCA3FF543F30E509541FFEE49344
:1007CA00A360010ECF54C025E060A840B8E493A30B
:1007DA00FAE493A3F8E493A3C8C582C8CAC583CA36
:1007EA00F0A3C8C582C8CAC583CADFE9DEE780BEEE
:010A8800006D
:10000300E5312425F8E605312278223007027825E8
:10001300E475F0011207380206E02000EB7F2ED2D0
:10002300008018EF540F2490D43440D4FF30040BD5
:10003300EF24BFB41A0050032461FFE532600215B8
:10004300320535E5357002053430070D7822E47545
:10005300F001120738EF0207260209F97403D207E9
:100063008003E4C207F5318B228A238924E4F53225
:10007300F534F535E53260077F2012003E80F575D3
:1000830033FFC201C200C202C203C205C206C208D4
:1000930012000CFF700D3007057F0012004FAF35C3
:1000A300AE3422B4255FC2D5C20412000CFF24D0A3
:1000B300B40A00501A75F00A783230D50508B6FF35
:1000C3000106C6A426F620D5047002D20380D924E3
:1000D300CFB41A00EF5004C2E5D20402024FD2019A
:1000E30080C6D20080C0D20280BCD2D580BAD205ED
:1000F30080B47F2012003E2002077401B532004015
:10010300F1120003FF12003E020077D208D20680EC
:1001130095120003FB120003FA120003F94A4B7015
:100123000679207A037BFF20022EE532602A7E00C7
:100133008E827583001206F960060EEE653370F049
:10014300C2D5EBC0E0EAC0E0E9C0E0EE120296D00F
:10015300E0F9D0E0FAD0E0FB1206E0FF60AAEBC0C2
:10016300E0EAC0E0E9C0E012003ED0E02401F9D0AB
:10017300E03400FAD0E0FBE5330460DCD533D9800A
:10018300877BFF7A027992D202809C791080027970
:1001930008C206C2088008D2D5790A8004790AC247
:1001A300D5E533047002F533E4FAFDFEFF120003D4
:1001B300FC7B08200113120003FD7B1030000A12A0
:1001C3000003FE120003FF7B20EC3382D592D5504F
:1001D30013C3E43000069FFFE49EFEE42001039D69
:1001E300FDE49CFCE4CBF8C201EC700CCFCECDCC8B
:1001F300E824F8F870F38017C3EF33FFEE33FEED16
:1002030033FDEC33FCEB33FB994002FB0FD8E9EBF6
:10021300300105F8D0E0C448B201C0E00AEC4D4E0D
:100223004F78207B0070C2EAB5330040BCC0E012B7
:100233000298D0F0D0E0200104C4C0E0C4B201C0F1
:10024300F0120027D0F0D5F0EB0200771207480137
:100253001453018E5800E54C00E14201924F019A7C
:0F02630044019A4900FA4301A0550184460184E1
:100272004501844703405000E92D00ED2E01102B6B
:1002820000F123010E2003292A00A94800000108D9
:100292003F3F3F00790AA2D5200314300509B91067
:1002A200020404B9080104A2D52006025001042068
:1002B20002689202B532005034C0E07F2030031948
:1002C2007F30A20272067205500F1202EFC202C202
:1002D20006C205C2087F30800F300503E9C0E01274
:1002E200003E300503D0E0F9D0E0B532CC3005173E
:1002F2007F30B9100C12003E7F583004077F78809F
:1003020003B9080312003E3002057F2D02003E7F32
:10031200202008F87F2B2006F322920280CF286E3D
:10032200756C6C2900D2011200033001F8C2017809
:100332003230D50108F60200A92D50434958120067
:10034200032403B405004001E490033B9312002F01
:0D035200743A12002FD20375320402018E9E
:1006E000BB010689828A83E0225002E722BBFE0218
:0906F000E32289828A83E493224B
:1006F900BB010CE58229F582E5833AF583E02250B6
:1007090006E92582F8E622BBFE06E92582F8E222FF
:0D071900E58229F582E5833AF583E4932219
:10072600BB010689828A83F0225002F722BBFE01B2
:02073600F322AC
:10073800FAE6FB0808E6F925F0F618E6CA3AF622C2
:10074800D083D082F8E4937012740193700DA3A340
:1007580093F8740193F5828883E473740293686054
:06076800EFA3A3A380DF54
:1009F900EFB40A07740D120A04740A309811A89901
:100A0900B8130CC2983098FDA899C298B811F6305D
:070A190099FDC299F5992235
:00000001FF
